{
  "_format": "hh-sol-artifact-1",
  "contractName": "VeriCert",
  "sourceName": "contracts/VeriCert.sol",
  "abi": [
    {
      "inputs": [],
      "stateMutability": "nonpayable",
      "type": "constructor"
    },
    {
      "anonymous": false,
      "inputs": [
        {
          "indexed": true,
          "internalType": "bytes32",
          "name": "certificadoId",
          "type": "bytes32"
        },
        {
          "indexed": true,
          "internalType": "address",
          "name": "institucionEmisora",
          "type": "address"
        },
        {
          "indexed": false,
          "internalType": "string",
          "name": "nombreDestinatario",
          "type": "string"
        }
      ],
      "name": "CertificadoEmitido",
      "type": "event"
    },
    {
      "anonymous": false,
      "inputs": [
        {
          "indexed": true,
          "internalType": "bytes32",
          "name": "certificadoId",
          "type": "bytes32"
        },
        {
          "indexed": true,
          "internalType": "address",
          "name": "institucionEmisora",
          "type": "address"
        }
      ],
      "name": "CertificadoRevocado",
      "type": "event"
    },
    {
      "anonymous": false,
      "inputs": [
        {
          "indexed": true,
          "internalType": "address",
          "name": "institucion",
          "type": "address"
        }
      ],
      "name": "InstitucionAutorizada",
      "type": "event"
    },
    {
      "anonymous": false,
      "inputs": [
        {
          "indexed": true,
          "internalType": "address",
          "name": "institucion",
          "type": "address"
        }
      ],
      "name": "InstitucionRevocada",
      "type": "event"
    },
    {
      "inputs": [
        {
          "internalType": "address",
          "name": "_institucion",
          "type": "address"
        }
      ],
      "name": "autorizarInstitucion",
      "outputs": [],
      "stateMutability": "nonpayable",
      "type": "function"
    },
    {
      "inputs": [
        {
          "internalType": "bytes32",
          "name": "",
          "type": "bytes32"
        }
      ],
      "name": "certificados",
      "outputs": [
        {
          "internalType": "bytes32",
          "name": "id",
          "type": "bytes32"
        },
        {
          "internalType": "address",
          "name": "institucionEmisora",
          "type": "address"
        },
        {
          "internalType": "string",
          "name": "nombreCertificado",
          "type": "string"
        },
        {
          "internalType": "string",
          "name": "nombreDestinatario",
          "type": "string"
        },
        {
          "internalType": "uint256",
          "name": "fechaEmision",
          "type": "uint256"
        },
        {
          "internalType": "bool",
          "name": "revocado",
          "type": "bool"
        }
      ],
      "stateMutability": "view",
      "type": "function"
    },
    {
      "inputs": [
        {
          "internalType": "string",
          "name": "_nombreCertificado",
          "type": "string"
        },
        {
          "internalType": "string",
          "name": "_nombreDestinatario",
          "type": "string"
        }
      ],
      "name": "emitirCertificado",
      "outputs": [
        {
          "internalType": "bytes32",
          "name": "",
          "type": "bytes32"
        }
      ],
      "stateMutability": "nonpayable",
      "type": "function"
    },
    {
      "inputs": [
        {
          "internalType": "address",
          "name": "",
          "type": "address"
        }
      ],
      "name": "institucionesAutorizadas",
      "outputs": [
        {
          "internalType": "bool",
          "name": "",
          "type": "bool"
        }
      ],
      "stateMutability": "view",
      "type": "function"
    },
    {
      "inputs": [],
      "name": "owner",
      "outputs": [
        {
          "internalType": "address",
          "name": "",
          "type": "address"
        }
      ],
      "stateMutability": "view",
      "type": "function"
    },
    {
      "inputs": [
        {
          "internalType": "address",
          "name": "_institucion",
          "type": "address"
        }
      ],
      "name": "revocarAutorizacion",
      "outputs": [],
      "stateMutability": "nonpayable",
      "type": "function"
    },
    {
      "inputs": [
        {
          "internalType": "bytes32",
          "name": "_certificadoId",
          "type": "bytes32"
        }
      ],
      "name": "revocarCertificado",
      "outputs": [],
      "stateMutability": "nonpayable",
      "type": "function"
    },
    {
      "inputs": [
        {
          "internalType": "bytes32",
          "name": "_certificadoId",
          "type": "bytes32"
        }
      ],
      "name": "verificarCertificado",
      "outputs": [
        {
          "internalType": "bytes32",
          "name": "id",
          "type": "bytes32"
        },
        {
          "internalType": "address",
          "name": "institucionEmisora",
          "type": "address"
        },
        {
          "internalType": "string",
          "name": "nombreCertificado",
          "type": "string"
        },
        {
          "internalType": "string",
          "name": "nombreDestinatario",
          "type": "string"
        },
        {
          "internalType": "uint256",
          "name": "fechaEmision",
          "type": "uint256"
        },
        {
          "internalType": "bool",
          "name": "esValido",
          "type": "bool"
        }
      ],
      "stateMutability": "view",
      "type": "function"
    }
  ],
  "bytecode": "0x608060405234801561001057600080fd5b50336000806101000a81548173ffffffffffffffffffffffffffffffffffffffff021916908373ffffffffffffffffffffffffffffffffffffffff160217905550611a14806100606000396000f3fe608060405234801561001057600080fd5b50600436106100885760003560e01c80638da5cb5b1161005b5780638da5cb5b1461012f578063c993f9ee1461014d578063d3893b2514610169578063dfb04a491461019957610088565b80630800ba3f1461008d57806311b09380146100c257806330763247146100f7578063328e469714610113575b600080fd5b6100a760048036038101906100a29190610d5c565b6101c9565b6040516100b996959493929190610e9d565b60405180910390f35b6100dc60048036038101906100d79190610d5c565b6103f4565b6040516100ee96959493929190610e9d565b60405180910390f35b610111600480360381019061010c9190610d5c565b61056d565b005b61012d60048036038101906101289190610f38565b610760565b005b6101376108fb565b6040516101449190610f65565b60405180910390f35b61016760048036038101906101629190610f38565b61091f565b005b610183600480360381019061017e9190610f38565b610ad7565b6040516101909190610f80565b60405180910390f35b6101b360048036038101906101ae91906110d0565b610af7565b6040516101c09190611148565b60405180910390f35b6000806060806000806000600160008981526020019081526020016000209050600073ffffffffffffffffffffffffffffffffffffffff168160010160009054906101000a900473ffffffffffffffffffffffffffffffffffffffff1673ffffffffffffffffffffffffffffffffffffffff160361027c576040517f08c379a0000000000000000000000000000000000000000000000000000000008152600401610273906111d5565b60405180910390fd5b80600001548160010160009054906101000a900473ffffffffffffffffffffffffffffffffffffffff16826002018360030184600401548560050160009054906101000a900460ff16158380546102d290611224565b80601f01602080910402602001604051908101604052809291908181526020018280546102fe90611224565b801561034b5780601f106103205761010080835404028352916020019161034b565b820191906000526020600020905b81548152906001019060200180831161032e57829003601f168201915b5050505050935082805461035e90611224565b80601f016020809104026020016040519081016040528092919081815260200182805461038a90611224565b80156103d75780601f106103ac576101008083540402835291602001916103d7565b820191906000526020600020905b8154815290600101906020018083116103ba57829003601f168201915b505050505092509650965096509650965096505091939550919395565b60016020528060005260406000206000915090508060000154908060010160009054906101000a900473ffffffffffffffffffffffffffffffffffffffff169080600201805461044390611224565b80601f016020809104026020016040519081016040528092919081815260200182805461046f90611224565b80156104bc5780601f10610491576101008083540402835291602001916104bc565b820191906000526020600020905b81548152906001019060200180831161049f57829003601f168201915b5050505050908060030180546104d190611224565b80601f01602080910402602001604051908101604052809291908181526020018280546104fd90611224565b801561054a5780601f1061051f5761010080835404028352916020019161054a565b820191906000526020600020905b81548152906001019060200180831161052d57829003601f168201915b5050505050908060040154908060050160009054906101000a900460ff16905086565b6000600160008381526020019081526020016000209050600073ffffffffffffffffffffffffffffffffffffffff168160010160009054906101000a900473ffffffffffffffffffffffffffffffffffffffff1673ffffffffffffffffffffffffffffffffffffffff1603610617576040517f08c379a000000000000000000000000000000000000000000000000000000000815260040161060e906112a1565b60405180910390fd5b8060010160009054906101000a900473ffffffffffffffffffffffffffffffffffffffff1673ffffffffffffffffffffffffffffffffffffffff163373ffffffffffffffffffffffffffffffffffffffff16146106a9576040517f08c379a00000000000000000000000000000000000000000000000000000000081526004016106a090611333565b60405180910390fd5b8060050160009054906101000a900460ff16156106fb576040517f08c379a00000000000000000000000000000000000000000000000000000000081526004016106f2906113c5565b60405180910390fd5b60018160050160006101000a81548160ff0219169083151502179055503373ffffffffffffffffffffffffffffffffffffffff16827f9aa2cd076bacd9147451074558321ec044522c324e5880c3cc846ce8cd8e59be60405160405180910390a35050565b60008054906101000a900473ffffffffffffffffffffffffffffffffffffffff1673ffffffffffffffffffffffffffffffffffffffff163373ffffffffffffffffffffffffffffffffffffffff16146107ee576040517f08c379a00000000000000000000000000000000000000000000000000000000081526004016107e590611457565b60405180910390fd5b600073ffffffffffffffffffffffffffffffffffffffff168173ffffffffffffffffffffffffffffffffffffffff160361085d576040517f08c379a00000000000000000000000000000000000000000000000000000000081526004016108549061150f565b60405180910390fd5b6001600260008373ffffffffffffffffffffffffffffffffffffffff1673ffffffffffffffffffffffffffffffffffffffff16815260200190815260200160002060006101000a81548160ff0219169083151502179055508073ffffffffffffffffffffffffffffffffffffffff167ff8b6c95ee5aaac19e8c0335c7f3973923c4e84022a242450edd8ac89a076531e60405160405180910390a250565b60008054906101000a900473ffffffffffffffffffffffffffffffffffffffff1681565b60008054906101000a900473ffffffffffffffffffffffffffffffffffffffff1673ffffffffffffffffffffffffffffffffffffffff163373ffffffffffffffffffffffffffffffffffffffff16146109ad576040517f08c379a00000000000000000000000000000000000000000000000000000000081526004016109a490611457565b60405180910390fd5b600260008273ffffffffffffffffffffffffffffffffffffffff1673ffffffffffffffffffffffffffffffffffffffff16815260200190815260200160002060009054906101000a900460ff16610a39576040517f08c379a0000000000000000000000000000000000000000000000000000000008152600401610a30906115a1565b60405180910390fd5b6000600260008373ffffffffffffffffffffffffffffffffffffffff1673ffffffffffffffffffffffffffffffffffffffff16815260200190815260200160002060006101000a81548160ff0219169083151502179055508073ffffffffffffffffffffffffffffffffffffffff167fb4365f5331e3dacbe3caf524e60452c503f008ee6dc4eb79bf2c535da24b5b3c60405160405180910390a250565b60026020528060005260406000206000915054906101000a900460ff1681565b6000600260003373ffffffffffffffffffffffffffffffffffffffff1673ffffffffffffffffffffffffffffffffffffffff16815260200190815260200160002060009054906101000a900460ff16610b85576040517f08c379a0000000000000000000000000000000000000000000000000000000008152600401610b7c90611633565b60405180910390fd5b600042338585604051602001610b9e94939291906116f8565b6040516020818303038152906040528051906020012090506040518060c001604052808281526020013373ffffffffffffffffffffffffffffffffffffffff16815260200185815260200184815260200142815260200160001515815250600160008381526020019081526020016000206000820151816000015560208201518160010160006101000a81548173ffffffffffffffffffffffffffffffffffffffff021916908373ffffffffffffffffffffffffffffffffffffffff1602179055506040820151816002019081610c7591906118ea565b506060820151816003019081610c8b91906118ea565b506080820151816004015560a08201518160050160006101000a81548160ff0219169083151502179055509050503373ffffffffffffffffffffffffffffffffffffffff16817f76bf287a6f02cd86f740fdb4d353815a75d9904e66982a4616419f480644b00c85604051610d0091906119bc565b60405180910390a38091505092915050565b6000604051905090565b600080fd5b600080fd5b6000819050919050565b610d3981610d26565b8114610d4457600080fd5b50565b600081359050610d5681610d30565b92915050565b600060208284031215610d7257610d71610d1c565b5b6000610d8084828501610d47565b91505092915050565b610d9281610d26565b82525050565b600073ffffffffffffffffffffffffffffffffffffffff82169050919050565b6000610dc382610d98565b9050919050565b610dd381610db8565b82525050565b600081519050919050565b600082825260208201905092915050565b60005b83811015610e13578082015181840152602081019050610df8565b60008484015250505050565b6000601f19601f8301169050919050565b6000610e3b82610dd9565b610e458185610de4565b9350610e55818560208601610df5565b610e5e81610e1f565b840191505092915050565b6000819050919050565b610e7c81610e69565b82525050565b60008115159050919050565b610e9781610e82565b82525050565b600060c082019050610eb26000830189610d89565b610ebf6020830188610dca565b8181036040830152610ed18187610e30565b90508181036060830152610ee58186610e30565b9050610ef46080830185610e73565b610f0160a0830184610e8e565b979650505050505050565b610f1581610db8565b8114610f2057600080fd5b50565b600081359050610f3281610f0c565b92915050565b600060208284031215610f4e57610f4d610d1c565b5b6000610f5c84828501610f23565b91505092915050565b6000602082019050610f7a6000830184610dca565b92915050565b6000602082019050610f956000830184610e8e565b92915050565b600080fd5b600080fd5b7f4e487b7100000000000000000000000000000000000000000000000000000000600052604160045260246000fd5b610fdd82610e1f565b810181811067ffffffffffffffff82111715610ffc57610ffb610fa5565b5b80604052505050565b600061100f610d12565b905061101b8282610fd4565b919050565b600067ffffffffffffffff82111561103b5761103a610fa5565b5b61104482610e1f565b9050602081019050919050565b82818337600083830152505050565b600061107361106e84611020565b611005565b90508281526020810184848401111561108f5761108e610fa0565b5b61109a848285611051565b509392505050565b600082601f8301126110b7576110b6610f9b565b5b81356110c7848260208601611060565b91505092915050565b600080604083850312156110e7576110e6610d1c565b5b600083013567ffffffffffffffff81111561110557611104610d21565b5b611111858286016110a2565b925050602083013567ffffffffffffffff81111561113257611131610d21565b5b61113e858286016110a2565b9150509250929050565b600060208201905061115d6000830184610d89565b92915050565b7f4572726f723a20456c20636572746966696361646f20636f6e2065737465204960008201527f44206e6f2066756520656e636f6e747261646f2e000000000000000000000000602082015250565b60006111bf603483610de4565b91506111ca82611163565b604082019050919050565b600060208201905081810360008301526111ee816111b2565b9050919050565b7f4e487b7100000000000000000000000000000000000000000000000000000000600052602260045260246000fd5b6000600282049050600182168061123c57607f821691505b60208210810361124f5761124e6111f5565b5b50919050565b7f4572726f723a20456c20636572746966696361646f206e6f206578697374652e600082015250565b600061128b602083610de4565b915061129682611255565b602082019050919050565b600060208201905081810360008301526112ba8161127e565b9050919050565b7f4572726f723a204e6f207469656e65207065726d69736f20706172612072657660008201527f6f636172206573746520636572746966696361646f2e00000000000000000000602082015250565b600061131d603683610de4565b9150611328826112c1565b604082019050919050565b6000602082019050818103600083015261134c81611310565b9050919050565b7f4572726f723a20456c20636572746966696361646f207961206861207369646f60008201527f207265766f6361646f207072657669616d656e74652e00000000000000000000602082015250565b60006113af603683610de4565b91506113ba82611353565b604082019050919050565b600060208201905081810360008301526113de816113a2565b9050919050565b7f4572726f723a20536f6c6f20656c2070726f706965746172696f20707565646560008201527f207265616c697a6172206573746120616363696f6e2e00000000000000000000602082015250565b6000611441603683610de4565b915061144c826113e5565b604082019050919050565b6000602082019050818103600083015261147081611434565b9050919050565b7f4572726f723a204c6120646972656363696f6e206465206c6120696e7374697460008201527f7563696f6e206e6f20707565646520736572206c6120646972656363696f6e2060208201527f6365726f2e000000000000000000000000000000000000000000000000000000604082015250565b60006114f9604583610de4565b915061150482611477565b606082019050919050565b60006020820190508181036000830152611528816114ec565b9050919050565b7f4572726f723a204c6120696e737469747563696f6e206e6f206573746120616360008201527f7475616c6d656e7465206175746f72697a6164612e0000000000000000000000602082015250565b600061158b603583610de4565b91506115968261152f565b604082019050919050565b600060208201905081810360008301526115ba8161157e565b9050919050565b7f4572726f723a20537520646972656363696f6e206e6f20636f72726573706f6e60008201527f6465206120756e6120696e737469747563696f6e206175746f72697a6164612e602082015250565b600061161d604083610de4565b9150611628826115c1565b604082019050919050565b6000602082019050818103600083015261164c81611610565b9050919050565b6000819050919050565b61166e61166982610e69565b611653565b82525050565b60008160601b9050919050565b600061168c82611674565b9050919050565b600061169e82611681565b9050919050565b6116b66116b182610db8565b611693565b82525050565b600081905092915050565b60006116d282610dd9565b6116dc81856116bc565b93506116ec818560208601610df5565b80840191505092915050565b6000611704828761165d565b60208201915061171482866116a5565b60148201915061172482856116c7565b915061173082846116c7565b915081905095945050505050565b60008190508160005260206000209050919050565b60006020601f8301049050919050565b600082821b905092915050565b6000600883026117a07fffffffffffffffffffffffffffffffffffffffffffffffffffffffffffffffff82611763565b6117aa8683611763565b95508019841693508086168417925050509392505050565b6000819050919050565b60006117e76117e26117dd84610e69565b6117c2565b610e69565b9050919050565b6000819050919050565b611801836117cc565b61181561180d826117ee565b848454611770565b825550505050565b600090565b61182a61181d565b6118358184846117f8565b505050565b5b818110156118595761184e600082611822565b60018101905061183b565b5050565b601f82111561189e5761186f8161173e565b61187884611753565b81016020851015611887578190505b61189b61189385611753565b83018261183a565b50505b505050565b600082821c905092915050565b60006118c1600019846008026118a3565b1980831691505092915050565b60006118da83836118b0565b9150826002028217905092915050565b6118f382610dd9565b67ffffffffffffffff81111561190c5761190b610fa5565b5b6119168254611224565b61192182828561185d565b600060209050601f8311600181146119545760008415611942578287015190505b61194c85826118ce565b8655506119b4565b601f1984166119628661173e565b60005b8281101561198a57848901518255600182019150602085019450602081019050611965565b868310156119a757848901516119a3601f8916826118b0565b8355505b6001600288020188555050505b505050505050565b600060208201905081810360008301526119d68184610e30565b90509291505056fea26469706673582212208a7e07b80f66d8b470c570464c651ae08dba34e2abdf0d3f9ace3c40af19380664736f6c63430008140033",
  "linkReferences": {},
  "deployedLinkReferences": {}
}